:020000040800F2
:10000000600B002045010008E9340008952F000826
:10001000BD340008B30C0008CB5C000800000000F1
:10002000000000000000000000000000413F000848
:10003000010E000800000000853C000899420008FD
:100040005F0100085F0100085F0100085F01000810
:100050005F0100085F0100085F0100085F01000800
:100060005F0100085F0100085F0100085F010008F0
:100070005F0100085F0100085F0100085F010008E0
:100080005F0100085F0100085F0100085F010008D0
:10009000395C00085F0100085F0100085F0100088B
:1000A0005F0100085F0100085F0100085F010008B0
:1000B000BD430008CD4300085F0100085F01000850
:1000C0005F0100085F0100085F0100085F01000890
:1000D0005F010008D5480008E5480008F548000819
:1000E0005F0100085F0100085F0100085F01000870
:1000F0005F0100085F0100085F0100085F01000860
:100100005F0100085F0100085F0100085F0100084F
:100110005F0100085F0100085F0100085F0100083F
:100120005F0100085F0100085F0100085F0100082F
:10013000DFF80CD000F0BAFB00480047395D00083A
:10014000600B00200648804706480047FEE7FEE7B0
:10015000FEE7FEE7FEE7FEE7FEE7FEE7FEE7FEE777
:100160006543000831010008202A04DB203A21FA07
:1001700002F00021704721FA02F3D040C2F12002C0
:100180009140084319467047F0B480EA0102D40F49
:100190004200B2EB410F02D20246084611464A0025
:1001A00042D0C30DDDB2C1F3C752AD1A202D35DAEE
:1001B000C1F3160141F4000204B15242C5F1200618
:1001C00002FA06F12A411044B3EBD05F23D0C4B148
:1001D000012DA0EBC35009DCF0BC4FF0004202EA55
:1001E000C352DBB200F5000000F0D4BA400000F1C9
:1001F000807000EBC350A0F1807040EAD1704900DC
:1002000009E0490841EAC071A0EBC35000F50000C5
:10021000400800EBC350F0BC00F0B3BA61420122C9
:1002200002EB4101001BF6E7F0BC704781F0004192
:10023000AAE780F00040A7E780EA010210B502F0CB
:100240000043400022D04A001FD0010E01EB126192
:10025000C0F35600C2F3560240F4000042F400021C
:10026000A0FB022000047F39140400D0401C50EA97
:10027000124001D44000491EC2B20C0604EBD0105B
:10028000401C4008802A02D003E0002010BD20F06E
:100290000100002900DA0020184310BD30B480EAC4
:1002A000010202F0004530F0004221F0004013D07E
:1002B00090B1C30DD40DC2F31601C0F31600E41AB9
:1002C00041F4000140F400027D34914201D3641CEA
:1002D00000E04900002C02DA30BC002070474FF4E7
:1002E00000000023914201D3891A034340084FEADA
:1002F0004101F7D151B1914202D14FF0004105E0E7
:1003000002D24FF0010101E06FF0010103EBC45094
:10031000284430BC00F035BA2DE9FE4F804681EA12
:100320000300C00F0C46009021F0004123F000456F
:10033000B8EB0200A94105D24046214690461C4632
:100340000B46024623F00040104347D0270DC7F369
:100350000A00C3F30A510290401A019040286BDA58
:10036000C3F3130040F4801B0098924620B1002391
:10037000D2EB030A63EB0B0B01985946C0F1400224
:10038000504600F0DDF906460D4650465946019AA2
:1003900000F0E5F910EB08006141002487EA1152F2
:1003A00084EAE7731A4340D0009A62B3019A012AA3
:1003B0004FEA075215DC001B61EB02014FF00042CF
:1003C00002EA0752CDE90042001C41F58011324695
:1003D0002B4600F01CFA03B0BDE8F08F40462146E2
:1003E000F9E7001B61EB0201001C41F580130018C6
:1003F0005B412018A2F5001747EB030140EAD570D6
:10040000B6196D4111E06D084FEA360645EAC07530
:100410004FEA0752001B61EB0201001C41F58011FD
:1004200049084FEA30000019514132462B4603B0CB
:10043000BDE8F04F00F0DCB9009801224000002335
:10044000D0EB020263EBE073009821464FEAE074C0
:10045000B8EB000061EB0401E9E783F000435BE7E0
:1004600081F0004158E72DE9FE4F81EA030404F0D2
:10047000004421F0004100944FF0000B23F00043B2
:1004800050EA01045ED052EA03045BD0C3F30A547D
:10049000C1F30A552C44A4F2F3340194A0FB025496
:1004A000C1F3130141F48011C3F3130343F4801328
:1004B00001FB024400FB034E840A970A44EA81547C
:1004C00047EA8357A4FB076802958D0A05FB078559
:1004D0004FEA932C04FB0C542705029D4FEA065863
:1004E00047EA1637B5EB08056EEB070C870E920E40
:1004F00047EA811742EA8312A7FB0201B6EB0B0120
:1005000064EB00042B0D43EA0C335E1844EB1C50E3
:10051000DA465146E7FB0201C5F313044FEA0B33F9
:1005200043EA14534FEA0432019C43EA0603A4F160
:100530000C040294009CCDE900B400F068F903B00B
:10054000BDE8F08F00200146F9E72DE9F04D81EA82
:10055000030404F0004B21F0004514464FF0000A5C
:1005600023F0004150EA050220D054EA01021DD0D8
:10057000C5F30A570246C5F31303C1F31300C1F3D1
:100580000A5640F4801543F48013A7EB0608101BAD
:10059000D64608F2FD3873EB050002D308F10108D6
:1005A00001E092185B41B8F1000F03DA0020014628
:1005B000BDE8F08D00204FF48011064684460EE021
:1005C000171B73EB050705D3121B63EB05030643EB
:1005D0004CEA010C49084FEA300092185B4150EA9E
:1005E0000107EDD152EA030012D082EA040083EA47
:1005F0000501084305D0101BAB4106D201220023A0
:1006000006E000224FF0004302E06FF001025310B9
:100610001AEB06004CEB085110EB0A0041EB0B0102
:10062000BDE8F04D00F0E4B8C10F80EAE070084486
:10063000CA079623002100F0ADB896230022114688
:1006400000F0A8B80EB540F2334102910021CDE987
:1006500000110A460B4600F0DAF803B000BD20F0A6
:100660000040C10DC0F3160040F400007F2901DAFC
:1006700000207047962903DCC1F19601C8407047FD
:10068000963988407047C1F30A5210B5C1F313017F
:1006900040F2FF3341F480119A4201DA002010BD8C
:1006A00040F233439A42A2F2334203DC5242FFF754
:1006B0005BFD10BD904010BD00F0004230F00040E6
:1006C0000AD0C10D01F56071C0F3160042EA015174
:1006D000C20840071143704700200146704701F0EF
:1006E000004330B421F0004150EA010206D00A0D67
:1006F000A2F56072C1F31301002A02DC30BC0020B5
:100700007047440F44EAC104C100E01830BC00EB5C
:10071000C25000F036B80000002801DBC0F10040F4
:10072000002901DBC1F1004181427047002801DB53
:10073000C0F10040002901DBC1F10041884270474F
:10074000202A04DB203A00FA02F100207047914091
:10075000C2F1200320FA03F3194390407047202A86
:1007600006DBCB17203A41FA02F043EAE07306E0D9
:1007700041FA02F3D040C2F12002914008431946E9
:1007800070470029A8BF7047401C490008BF20F0EF
:100790000100704710B4B0FA80FC00FA0CF050EA87
:1007A000010404BF10BC704749B1CCF1200421FA08
:1007B00004F411FA0CF118BF012121430843A3EB03
:1007C0000C01CB1D4FEA00614FEA102042BF002010
:1007D00010BC704700EBC35010440029A4BF10BCEC
:1007E0007047401C490008BF20F0010010BC704752
:1007F00010B5141E73F1000408DA401C41F1000129
:1008000092185B411A4301D120F0010010BD2DE97F
:10081000F04D92469B4611B1B1FA81F202E0B0FA76
:1008200080F220329046FFF78BFF04460F4640EAE5
:100830000A0041EA0B0153465A46084313D01146B9
:1008400053EA010019D0C8F140025046FFF78CFC72
:1008500005460E46504659464246FFF771FF08438B
:1008600005D0012004E020463946BDE8F08D002087
:10087000054346EAE0762C4337430A986305E40AC9
:10088000A0EB08000022FD0A44EA47540A3002D5D2
:1008900000200146E9E7010510196941DDE9084535
:1008A00000196941BDE8F04DA2E70000064C074D74
:1008B00006E0E06840F0010394E807009847103430
:1008C000AC42F6D3FFF738FC8C5F0008AC5F000841
:1008D00070B5044680260A2005F00AFAA18B002292
:1008E000A06900F0CFFE0A2005F002FA042120469C
:1008F00000F0BFF8002511E00A2005F0F9F9A18900
:100900000122A06800F0BEFE0A2005F0F1F9A189DD
:100910000022A06800F0B6FE681CC5B2102DEBDB0B
:10092000002520E00A2005F0E3F9A1890122A06852
:1009300000F0A8FE06F03C0028B1A18A012220693F
:1009400000F0A0FE04E0A18A0022206900F09AFED7
:1009500076100A2005F0CCF9A1890022A06800F0E9
:1009600091FE681CC5B2082DDCDB642005F0C0F9DF
:10097000A18B0122A06900F085FE70BD7CB5044604
:100980000D4601221D49684600F03CF8DDE90001F2
:10099000C4E900014FF480721849684600F032F84B
:1009A000DDE90001C4E906014FF40072144968460C
:1009B00000F028F8DDE90001C4E9020102220F4934
:1009C000684600F01FF8DDE90001C4E90401A189CF
:1009D0000122A06800F056FEA18B0122A06900F060
:1009E00051FEA1880122206800F04CFE642005F031
:1009F0007FF92046FFF76CFF7CBD00000008014036
:100A0000001001401CB50091ADF80420DDE9003470
:100A1000C0E900341CBD2DE9F04104460D4608270D
:100A200005B90825002620E00A2005F061F9A18912
:100A30000122A06800F026FE07EA050028B1A18A7D
:100A40000122206900F01EFE04E0A18A0022206934
:100A500000F018FE7F100A2005F04AF9A189002253
:100A6000A06800F00FFE701CC6B2042EDCDBBDE8EF
:100A7000F0812DE9F04104460D460827002620E0CC
:100A80000A2005F035F9A1890122A06800F0FAFDDD
:100A900007EA050028B1A18A0122206900F0F2FDD1
:100AA00004E0A18A0022206900F0ECFD7F100A20FA
:100AB00005F01EF9A1890022A06800F0E3FD701C7A
:100AC000C6B2042EDCDBBDE8F0812DE9F04104461E
:100AD000884615464FF400470A2005F009F9A18B16
:100AE0000022A06900F0CEFD0A2005F001F90121E5
:100AF0002046FFF7BEFF41462046FFF78CFF002649
:100B000020E00A2005F0F4F8A1890122A06800F095
:100B1000B9FD07EA050028B1A18A0122206900F089
:100B2000B1FD04E0A18A0022206900F0ABFD7F1036
:100B30000A2005F0DDF8A1890022A06800F0A2FDDE
:100B4000701CC6B2102EDCDB0A2005F0D1F8A18B98
:100B50000122A06900F096FDBDE8F0817CB5044655
:100B60000D469DBB4FF480423249684600F068F85C
:100B7000DDE90001C4E9000140222F49684600F088
:100B80005FF8DDE90001C4E904014FF4004229499E
:100B9000684600F055F8DDE90001C4E90201802251
:100BA0002549684600F04CF8DDE90001C4E906017A
:100BB000642005F09DF8002280211F4800F062FDAE
:100BC000012291031B4800F05DFD31E0FFE7102298
:100BD0001A49684600F034F8DDE90001C4E9000173
:100BE00040221649684600F02BF8DDE90001C4E90F
:100BF000040120221149684600F022F8DDE90001D5
:100C0000C4E9020180220D49684600F019F8DDE9C7
:100C10000001C4E90601642005F06AF80022802181
:100C2000064800F02FFD01221021044800F02AFDA3
:100C30007CBD0000000C0140001001400008014094
:100C40001CB50091ADF80420DDE90034C0E90034A2
:100C50001CBD70B504460025A18B0122A06900F0DF
:100C600011FD022005F044F8A18B0022A06900F0DC
:100C700009FD012005F03CF8002616E0A1890122BB
:100C8000A06800F0FFFCA18A206900F0EFFC05439A
:100C9000A1890022A06800F0F5FC0F2E03DA4FF6C0
:100CA000FF7000EA4505701CC6B2102EE6DB284630
:100CB00070BD00BFFEE7000070B504460D46012D73
:100CC0000FD16078022802D06078012812D10A483A
:100CD00001F090FC022000F019FB084801F08AFCAA
:100CE00008E0054801F095FC022000F00FFB0348E6
:100CF00001F08FFC70BD000000060020C005002040
:100D00000246002004E0002342F82030431CD8B201
:100D10008842F8DB704700002DE9F04F85B082462D
:100D2000002004909AF8000010BB2D4801680020B4
:100D3000FFF782FA01902B4801680198FFF724FA27
:100D40008346FFF7B9FC80460022274BFFF788FB5C
:100D50000022264BCDE90201FFF7F7FB06460022F1
:100D6000234BFFF780FB0446FFF7B9FC049025E016
:100D70001B4801680020FFF75FFA009019480168DE
:100D80000098FFF701FA1B490190FFF787FA8346A5
:100D9000FFF792FC06460022134BFFF761FB00228F
:100DA000124BCDE90201FFF7D0FB04460022104BA5
:100DB000FFF759FB8046FFF792FC04900498FFF779
:100DC0004EFC84B2224601210B48FFF77EFE002232
:100DD00020210A4800F056FC05B0BDE8F08F000065
:100DE00028000020240000200000044000001440DF
:100DF000E0FFEF400000C04000070020000C014071
:100E00007047000010B50446042001F037FB01488C
:100E1000047010BD140000202DE9F04F8FB005467E
:100E20000C4692469B46A069401CA0616878012848
:100E300003D1E0695044E06105E06878022802D1FE
:100E4000206A58442062E98AA06988426FD35E48CC
:100E500001F0DFFB687801286BD1D4E90610B0FB04
:100E6000F1F086B259484079401EC1B2584802F0AC
:100E700027FB0746FFF720FCCDE90A013046FFF7C4
:100E8000DCFB0190FFF718FC07460022514BFFF7EF
:100E9000EAFA0022504BCDE90201FFF756FB00228F
:100EA0004E4BCDE90401FFF7D8FA00224C4BCDE9B7
:100EB0000601FFF7D8FACDE90801DDE90A23FFF7BB
:100EC00044FBCDE90C01FFF70AFC814600214846AE
:100ED000FFF72CFC14D23D484079401E414A52F89D
:100EE00020104846FFF7A8F9074638484079401EC9
:100EF0003D4A52F820103846FFF746F9206013E0CB
:100F000032484079401E394A52F820104846FFF7CF
:100F100093F907462D484079401E334A52F8201075
:100F20003846FFF731F920600020E0613BE048E0FF
:100F3000FFE76878022836D1A169206AB0FBF1F09A
:100F400086B23046FFF779FB0590FFF7B5FB074601
:100F50000022204BFFF787FA00221F4BCDE9060144
:100F6000FFF7F3FA00221D4BCDE90801FFF775FAF0
:100F700000221B4BCDE90A01FFF775FACDE90C0100
:100F8000FFF7ADFB81461A4801684846FFF754F960
:100F90000746184801683846FFF7F6F88146C4F856
:100FA0000C90002020620020A0610848007A0128EF
:100FB00003D1002005490872887000200FB0BDE8F9
:100FC000F08F0120FAE70000C00500205400002047
:100FD0000000204100000440E0FFEF400000F43F2B
:100FE00000002840700500204805002098050020DA
:100FF000380000203400002010B5034601297DD1BF
:10100000187801287BD1002A7AD15448007858708A
:101010005248407A988098884FF6FF7404EA00207E
:10102000988098884D4CA47A204398804B48C07A89
:10103000D880D8884FF6FF7404EA0020D880D8887A
:10104000464C247B2043D8804448407BD882D88AB1
:101050004FF6FF7404EA0020D882D88A3F4CA47B64
:101060002043D8823D48C07B1883188B4FF6FF740D
:1010700004EA00201883188B384C247C2043188302
:101080005878032802D05878012816D10120344C12
:101090006070324880781881187A000200B2188196
:1010A000B3F908002D4CE478204318811889988101
:1010B0002A48007A2A4CA0701BE05878042802D0F5
:1010C0005878022815D10220254C6070234880787A
:1010D000D881987B000200B2D881B3F90E001F4C72
:1010E000E4782043D881D88958821C48007A1C4C67
:1010F00060711A4880799882187D02E024E021E02E
:101100001CE0000200B29882B3F91400134CE47999
:1011100020439882D88A4FF47A746043DC8890FB2D
:10112000F4F09C88201A0A3800B25883B3F91A00E8
:10113000002801DA00205883002010BD012A01D1C7
:101140000020FAE70120F8E7022904D103480078DB
:1011500098700020F1E70120EFE70000AE000020CA
:101160005400002070B50446002594F821000228A0
:1011700003D00420A0630125C1E02068006820F0AE
:101180000E00216808602068006820F001002168D6
:1011900008605C492068884252D95A4978392068E9
:1011A000884201D1012047E05649643920688842CD
:1011B00001D1102040E0534950392068884201D1C4
:1011C000801539E04F493C392068884201D18014AC
:1011D00032E04C4928392068884202D14FF48030EF
:1011E0002AE0484914392068884202D14FF480101F
:1011F00022E044492068884201D140041CE0424971
:101200002068884201D1012016E03F49143120684E
:10121000884201D110200FE03B49283120688842E4
:1012200001D1801508E038493C312068884201D15D
:10123000801401E04FF480303349091F086051E009
:10124000304978392068884201D1012047E02D4992
:1012500064392068884201D1102040E02949503982
:101260002068884201D1801539E026493C39206840
:10127000884201D1801432E022492839206888420E
:1012800002D14FF480302AE01E4914392068884288
:1012900002D14FF4801022E01A492068884201D11F
:1012A00040041CE018492068884201D1012016E062
:1012B000154914312068884201D110200FE01249ED
:1012C00028312068884201D1801508E00E493C3160
:1012D0002068884201D1801401E04FF48030094930
:1012E00080394860012084F8210000BF002084F884
:1012F000200000BF606B10B12046616B8847284614
:1013000070BD0000800002400804024031B500F0CA
:10131000BFF90546009C601C00B1641C00BF00F0D2
:10132000B7F9401BA042FAD338BD00002DE9F847B9
:1013300002460024002000258446002700237BE18C
:101340004FF0010808FA03F4D1F8008008EA04001D
:10135000A0427DD1DFF8ECA2D1F80480A8EB0A0905
:10136000D0453AD014DCB8F1030F50D009DCB8F105
:10137000000F31D0B8F1010F1CD0B8F1020F49D1E4
:1013800020E0B8F1110F18D0B8F1120F42D11EE0D1
:10139000B9F5881F25D006DCB9F5803F20D0B9F516
:1013A000801F37D11AE0B9F5001F18D0B9F5041F16
:1013B00030D117E0D1F80CC02DE0D1F80C8008F145
:1013C000040C28E0D1F80C8008F1080C23E0D1F8D7
:1013D0000C8008F10C0C1EE000BF00BF00BF00BF76
:1013E00000BF00BFD1F80880B8F1000F02D14FF064
:1013F000040C0BE0D1F80880B8F1010F03D14FF0D5
:10140000080C146102E04FF0080C546103E04FF047
:10141000000C00E000BF00BFFF2801D8904601E0AB
:1014200002F104084646FF2802D84FEA830803E089
:10143000A3F108084FEA88084746D6F800804FF025
:101440000F0909FA07F928EA09080CFA07F900E078
:101450007AE048EA0908C6F80080D1F8048008F06C
:101460008058B8F1805F6FD100BFDFF8DC81D8F819
:10147000188048F00108DFF8D091C9F81880C846F4
:10148000D8F8188008F00108CDF8008000BF00BF30
:101490004FEAB9384FEA930958F829504FEA837850
:1014A0004FEA18794FF00F0808FA09F825EA0805FD
:1014B000DFF89881424502D14FF0000824E0DFF8C0
:1014C0009081424502D14FF001081DE0DFF8848190
:1014D000424502D14FF0020816E0DFF87C81424518
:1014E00002D14FF003080FE0DFF87081424502D1CE
:1014F0004FF0040808E0DFF86881424502D14FF060
:10150000050801E04FF006084FEA83794FEA1979A0
:1015100008FA09F848EA0505DFF848814FEA930917
:1015200048F82950D1F8048008F48038B8F5803F95
:101530000BD1DFF83481D8F8008048EA0008DFF8E2
:101540002891C9F800800AE075E0DFF81C81D8F81E
:10155000008028EA0008DFF81091C9F80080D1F86F
:10156000048008F40038B8F5003F0ED1DFF8F880A9
:1015700008F10408D8F8008048EA0008DFF8E8908D
:1015800009F10409C9F800800DE0DFF8DC8008F1FA
:101590000408D8F8008028EA0008DFF8CC9009F1A8
:1015A0000409C9F80080D1F8048008F48018B8F55F
:1015B000801F0ED1DFF8B08008F10808D8F800804D
:1015C00048EA0008DFF8A09009F10809C9F800808E
:1015D0000DE0DFF8948008F10808D8F8008028EAC8
:1015E0000008DFF8849009F10809C9F80080D1F8F3
:1015F000048008F40018B8F5001F0ED1DFF86880E9
:1016000008F10C08D8F8008048EA0008DFF8589084
:1016100009F10C09C9F800800DE0DFF84C8008F1F1
:101620000C08D8F8008028EA0008DFF83C9009F19F
:101630000C09C9F800805B1C102BFFF481AEBDE8DB
:10164000F88700000000111000100240000801405F
:10165000000C01400010014000140140001801403E
:10166000001C01400800014000040140024693684C
:101670000B400BB1012000E000207047C2684A40D7
:10168000C26070470AB1016101E00B040361704759
:101690000148006870470000100000200248006800
:1016A000401C0149086070471000002010B5084830
:1016B000006840F0100006490860032000F0B4F80C
:1016C000002000F007F800F019F8002010BD00001D
:1016D0000020024070B50446074800684FF47A7154
:1016E000B0FBF1F5284600F0DEFE00222146501E38
:1016F00000F05BF8002070BD0000002008B500BFBE
:101700002148806940F001001F49886108468069CE
:1017100000F00100009000BF00BF032000F084F83B
:10172000002211466FF00B0000F03FF80022114636
:101730006FF00A0000F039F8002211466FF009003E
:1017400000F033F800221146501F00F02EF800225E
:101750001146101F00F029F800221146901E00F0DB
:1017600024F800221146501E00F01FF800BF074861
:10177000406820F0E060054948600846406840F055
:101780000070486000BF08BD00100240000001402A
:1017900000BF00F01F02012191404209920002F1B6
:1017A000E022C2F8001100BF70472DE9F05F8046CB
:1017B0000D461646002701F099FE074639462A468F
:1017C000334601F00700C0F1070ABAF1040F02D94D
:1017D0004FF0040A01E0C0F1070AD14600F1040A03
:1017E000BAF1070F02D24FF0000A01E0A0F1030A9C
:1017F000D4464FF0010A0AFA09FAAAF1010A0AEAE4
:10180000020A0AFA0CFA4FF0010B0BFA0CFBABF1CF
:10181000010B0BEA030B4AEA0B042146404601F098
:101820006DFEBDE8F09F000000BF00F00702064B10
:1018300019684FF6FF031940044B0B4343EA02219A
:10184000014B196000BF70470CED00E00000FA0585
:1018500070B504460D4604F1280101EB45114A69B3
:101860002946D4F85C0403F0DDF970BD70B5044678
:101870000D4604F50A7101EB45114A692946D4F871
:101880005C0403F03CFA70BD70B504460D460026BA
:1018900005F08000802806D105F07F0104F12800C2
:1018A00000EB411603E004F50A7000EB451600203A
:1018B000B07005F07F003070C5F3C010707000BFCD
:1018C00094F82804012801D1022070BD012084F879
:1018D000280400BF3146206803F077FF00BF0020D6
:1018E00084F8280400BF00BFEFE72DE9F047044665
:1018F0000D46174698464FF00009002605F0800077
:10190000802806D105F07F0104F1280000EB411684
:1019100005E005F07F0104F50A7000EB411605F0C3
:101920007F00307005F08000C0097070376186F864
:10193000038000BF94F82804012802D10220BDE8EA
:10194000F087012084F8280400BF3146206803F0A6
:1019500064FD00BF002084F8280400BF4846EEE77D
:101960002DE9F04105460E4617469846002406F03C
:101970007F0105F50A7000EB41146761C4F8188017
:101980000020E061607006F07F00207006F07F00AC
:1019900020B92146286803F0B5FF03E021462868F6
:1019A00003F0B0FF0020BDE8F08170B504460D469D
:1019B000002605F08000802806D105F07F0104F1A3
:1019C000280000EB411603E004F50A7000EB451611
:1019D0000120B07005F07F003070C5F3C01070704A
:1019E00000BF94F82804012801D1022070BD012015
:1019F00084F8280400BF3146206803F040FF05F05A
:101A00007F0020B904F22C41206803F0DBFE00BF08
:101A1000002084F8280400BF00BFE7E72DE9F0416B
:101A200005460E4617469846002406F07F0105F14C
:101A3000280000EB41146761C4F818800020E061C1
:101A40000120607006F07F00207006F07F0020B952
:101A50002146286803F056FF03E02146286803F07A
:101A600051FF0020BDE8F08110B50446206804F065
:101A7000EBF800F40040B0F5004F02D1204601F031
:101A8000DFFE206804F0E0F800F48060B0F5806FBD
:101A90000ED12068B0F8440020F480602168A1F8DD
:101AA0004400204600F094F80021204600F0B3F8EE
:101AB000206804F0C9F800F48040B0F5804F07D1E9
:101AC0002068B0F8440020F480402168A1F8440068
:101AD000206804F0B9F800F40050B0F5005F07D1B9
:101AE0002068B0F8440020F400502168A1F84400B8
:101AF000206804F0A9F800F48050B0F5805F1AD196
:101B00002068B0F8400020F004002168A1F84000EF
:101B10002068B0F8400020F008002168A1F84000DB
:101B2000204600F06AF82068B0F8440020F48050A5
:101B30002168A1F84400206804F086F800F40060F1
:101B4000B0F5006F20D12068B0F8400040F00800E8
:101B50002168A1F840002068B0F8440020F400603B
:101B60002168A1F844002068B0F8400040F004006B
:101B70002168A1F84000206804F066F8C0F3003046
:101B800010B9204600F06CF8206804F05DF800F40D
:101B90000070B0F5007F0AD12068B0F8440020F44E
:101BA00000702168A1F84400204600F02DF820685C
:101BB00004F04AF800F48070B0F5807F07D1206807
:101BC000B0F8440020F480702168A1F8440010BDF2
:101BD00070B504460125A068022801D100BF01E0CC
:101BE000012500BF00BF2946D4F85C0403F07EF94C
:101BF000D4F85C0403F040F970BD10B50446D4F885
:101C00005C0403F05BF910BD10B50446D4F85C0425
:101C100003F05BF910BD70B504460D4600BF94F8A3
:101C20002804012801D1022070BD012084F8280475
:101C300000BF84F824502946206804F01EF800BF35
:101C4000002084F8280400BF00BFEDE710B504466B
:101C500004F22C41D4F85C0403F06EF910BD0000CE
:101C600010B50446D4F85C0403F0BFF9A06928B1AC
:101C70000348006840F006000149086010BD0000FC
:101C800010ED00E0F8B5044600260025207800F0AD
:101C9000010000286BD000274348C06900F0805045
:101CA00070B900BF4048C06940F080503E49C861EB
:101CB0000846C06900F08050009000BF00BF0127B7
:101CC0003A48006800F48070B0B93848006840F4C1
:101CD000807036490860FFF7DBFC064606E0FFF738
:101CE000D7FC801B642801D90320F8BD2F48006869
:101CF00000F480700028F2D02B48006A00F4407590
:101D00002DB3A08800F44070A84220D02648006A75
:101D100020F4407501202649086000200860224810
:101D2000056205F0010090B1FFF7B2FC064608E03D
:101D3000FFF7AEFC801B41F28831884201D90320B5
:101D4000D3E71948006A00F002000028F0D01648D6
:101D5000006A20F440706168084313490862012F4B
:101D600004D10846C06920F08050C86100BF2078C7
:101D700000F00200022807D10B48406820F44040E0
:101D8000A168084308494860207800F01000102836
:101D900007D10548406820F4800061690843024982
:101DA00048600020A1E700000010024000700040E1
:101DB0004004424270B504460D4600266248006861
:101DC00000F00700A8420ED25F48006820F007002C
:101DD00028435D4908600846006800F00700A842F3
:101DE00001D0012070BD207800F00200022807D148
:101DF0005648406820F0F000A16808435349486005
:101E0000207800F0010000285DD06068012806D12C
:101E10004E48006800F4003090B90120E2E76068A5
:101E2000022806D14948006800F0007040B901203E
:101E3000D8E74648006800F0020008B90120D1E761
:101E40004248406820F00300616808433F49486009
:101E5000FFF71EFC06466068012810D108E0FFF776
:101E600017FC801B41F28831884201D90320B9E771
:101E70003648406800F00C000428F0D123E0606888
:101E8000022810D108E0FFF703FC801B41F28831E3
:101E9000884201D90320A5E72C48406800F00C00D7
:101EA0000828F0D10FE008E0FFF7F2FB801B41F2B9
:101EB0008831884201D9032094E72448406800F023
:101EC0000C000028F0D12048006800F00700A8426C
:101ED0000ED91D48006820F0070028431A49086001
:101EE0000846006800F00700A84201D0012079E709
:101EF000207800F00400042807D11448406820F43A
:101F0000E060E168084311494860207800F008006B
:101F1000082808D10D48406820F46050216940EA43
:101F2000C1000A49486000F03DF808494968C1F31A
:101F30000311074A515CC840064908600020FFF7BA
:101F4000C9FB00204EE700000020024000100240C4
:101F5000745F00080000002001480068704700001E
:101F60000000002000B5FFF7F7FF04494968C1F3FE
:101F70000221034A515CC84000BD0000001002402D
:101F8000845F000800B5FFF7E7FF04494968C1F323
:101F9000C221034A515CC84000BD0000001002404D
:101FA000845F0008F0B585B00FF2700C9CE8E0107B
:101FB00001A8A0E8E0101DA52D68009500210024CF
:101FC0000022002300201A4D696801F00C05FDB1C4
:101FD000042D02D0082D1AD101E016481AE001ADF7
:101FE000C1F38346AB5D01F480355DB1104D6D6882
:101FF000C5F340451DF805400E4DB5FBF4F505FB56
:1020000003F202E00C4D03FB05F2104602E000BFB4
:10201000084800BF00BF05B0F0BD00000203040582
:10202000060708090A0B0C0D0E0F10100102000024
:102030000010024000127A0000093D00F8B5044685
:102040000025207800F00100002878D0F84840688A
:1020500000F00C0004280CD0F548406800F00C009B
:10206000082811D1F248406800F48030B0F5803F74
:102070000AD1EF48006800F4003000285FD06068A3
:1020800000285CD10120F8BD00BF6068B0F5803F3A
:1020900006D1E748006840F48030E549086028E050
:1020A000606858B9E248006820F48030E049086070
:1020B0000846006820F4802008601AE06068B0F5E7
:1020C000A02F0BD1DA48006840F48020D84908607E
:1020D0000846006840F4803008600AE0D448006890
:1020E00020F48030D24908600846006820F480203F
:1020F000086000BF606888B1FFF7CAFA054606E0CD
:10210000FFF7C6FA401B642801D90320BBE7C84883
:10211000006800F400300028F2D010E0FFF7B8FAB1
:10212000054606E0FFF7B4FA401B642801D90320F6
:10213000A9E7BF48006800F400300028F2D12078F9
:1021400000F00200022857D1B948406800F00C00A6
:1021500050B1B748406800F00C00082818D1B448C6
:10216000406800F4803098B9B148006800F002007F
:1021700020B12069012801D0012084E7AC48006823
:1021800020F0F800616940EAC100A949086033E025
:102190002069E8B10120A7490860FFF779FA0546F0
:1021A00006E0FFF775FA401B022801D903206AE711
:1021B0009F48006800F002000028F2D09C480068A8
:1021C00020F0F800616940EAC1009949086013E015
:1021D000002098490860FFF75BFA054606E0FFF724
:1021E00057FA401B022801D903204CE790480068A9
:1021F00000F002000028F2D1207800F00800082842
:102200002DD1A069B8B101208B490860FFF740FAD1
:10221000054606E0FFF73CFA401B022801D90320DF
:1022200031E78348406A00F002000028F2D0012024
:1022300001F02AFD13E000207F490860FFF728FA2B
:10224000054606E0FFF724FA401B022801D90320C7
:1022500019E77748406A00F002000028F2D12078A0
:1022600000F00400042873D100267148C06900F012
:10227000805070B900BF6E48C06940F080506C4912
:10228000C8610846C06900F08050009000BF00BFE0
:1022900001266A48006800F48070B0B96748006899
:1022A00040F4807065490860FFF7F2F9054606E0E2
:1022B000FFF7EEF9401B642801D90320E3E65F48ED
:1022C000006800F480700028F2D000BFE0680128A8
:1022D00006D15748006A40F001005549086227E0DE
:1022E000E06858B95248006A20F00100504908627D
:1022F0000846006A20F00400086219E0E06805283A
:102300000BD14B48006A40F0040049490862084676
:10231000006A40F0010008620AE04548006A20F0C7
:102320000100434908620846006A20F00400086280
:1023300000BFE068A0B1FFF7ABF9054609E0FFF781
:10234000A7F9401B41F28831884202D903209AE65E
:1023500022E03748006A00F002000028EFD012E0C7
:10236000FFF796F9054608E0FFF792F9401B41F2A6
:102370008831884201D9032085E62D48006A00F0A3
:1023800002000028F0D1012E05D12948C06920F0B3
:1023900080502749C86100BFE069C8B3244840683D
:1023A00000F00C00082860D0E069022848D1002025
:1023B00020490866FFF76CF9054606E0FFF768F963
:1023C000401B022801D903205DE61948006800F08F
:1023D00000700028F2D1206AB0F5803F07D1144880
:1023E000406820F40030A168084311494860D4E9EE
:1023F000080108430E49496821F4741108430C4947
:10240000486001200B490866FFF742F9054607E0DE
:102410002DE0FFF73DF9401B022801D9032032E6E9
:102420000348006800F000700028F2D01FE00000B0
:10243000001002400000424280044242007000400E
:1024400000200C490866FFF723F9054606E0FFF770
:102450001FF9401B022801D9032014E60648006832
:1024600000F000700028F2D101E001200BE600200E
:1024700009E600000000424200100240042808D192
:102480004FF0E021096941F004014FF0E0221161B1
:1024900007E04FF0E021096921F004014FF0E0224C
:1024A00011617047704770B504462546681EB0F14B
:1024B000807F01D301200FE0681E4FF0E0214861CA
:1024C0000F214FF0FF3001F019F800204FF0E0210C
:1024D000886107200861002070BD10B5FFF7E2FF9A
:1024E00010BD70477047024600BF92F83C000128BB
:1024F00001D102207047012082F83C0000BF022079
:1025000082F83D001068406820F070001368586041
:10251000106840680B68184313685860106880683A
:1025200020F0800013689860106880684B6818433A
:1025300013689860012082F83D0000BF002082F8F7
:102540003C0000BF00BFD5E710B504460CB9012020
:1025500010BD94F83D0028B9002084F83C002046C6
:1025600000F00CF8022084F83D00211D206801F0E5
:1025700035FF012084F83D000020E9E738B5044626
:102580002068B0F1804F16D100BF1848C06940F0F4
:1025900001001649C8610846C06900F001000090BA
:1025A00000BF00BF002201211C20FFF7FEF81C2005
:1025B000FFF7EEF819E00E492068884215D100BFF8
:1025C0000A48C06940F002000849C8610846C0696D
:1025D00000F00200009000BF00BF002211461D2045
:1025E000FFF7E3F81D20FFF7D3F838BD00100240D5
:1025F0000004004001460868C06840F001000A6815
:10260000D0600868006840F001000A68106000208F
:10261000704701460868C06820F001000A68D06071
:1026200000BF0868006A41F21112104050B90868F2
:10263000006A9210104028B90868006820F0010074
:102640000A68106000BF002070472DE9F041044681
:102650000D46002600BF94F83C00012802D102205C
:10266000BDE8F081012084F83C0000BF022084F81E
:102670003D002068866826F0770626F47F462068AD
:102680008660286850283BD00CDC202860D004DC11
:10269000002853D0102865D155E030285DD040285F
:1026A00060D141E0602835D070280DD0B0F5805F52
:1026B00003D0B0F5005F55D115E02068806820F0A8
:1026C0000700216888604EE0D5E902136A68206837
:1026D00001F0D0FE2068866826F0770646F077067F
:1026E000206886603FE0D5E902136A68206801F03F
:1026F000C1FE2068806840F480402168886032E034
:10270000EA686968206801F0CBFE5021206801F07A
:10271000BDFE28E0EA686968206801F0D6FE602105
:10272000206801F0B3FE1EE0EA686968206801F0E5
:10273000B7FE4021206801F0A9FE14E000212068C6
:1027400001F0A4FE0FE01021206801F09FFE0AE0D6
:102750002021206801F09AFE05E03021206801F078
:1027600095FE00E000BF00BF012084F83D0000BFDF
:10277000002084F83C0000BF00BF71E7704710B52F
:10278000044620680069C0F34000D8B12068C068E2
:10279000C0F34000B0B16FF0020021680861012071
:1027A00020772068806900F0030018B12046FFF709
:1027B000E5FF05E0204600F0ADF8204600F0ABF85C
:1027C0000020207720680069C0F38000D8B120681D
:1027D000C068C0F38000B0B16FF0040021680861E8
:1027E000022020772068806900F4407018B12046EC
:1027F000FFF7C4FF05E0204600F08CF8204600F00B
:102800008AF80020207720680069C0F3C000D8B1A2
:102810002068C068C0F3C000B0B16FF00800216844
:102820000861042020772068C06900F0030018B117
:102830002046FFF7A3FF05E0204600F06BF8204696
:1028400000F069F80020207720680069C0F30010CC
:10285000D8B12068C068C0F30010B0B16FF01000AC
:1028600021680861082020772068C06900F4407062
:1028700018B12046FFF782FF05E0204600F04AF835
:10288000204600F048F8002020772068006900F01A
:10289000010058B12068C06800F0010030B16FF04D
:1028A000010021680861204600F036F820680069C0
:1028B000C0F3C01058B12068C068C0F3C01030B178
:1028C0006FF08000216808612046FFF70AFE20684B
:1028D0000069C0F3801058B12068C068C0F3801050
:1028E00030B16FF0400021680861204600F0D8F850
:1028F00020680069C0F3401058B12068C068C0F378
:10290000401030B16FF02000216808612046FFF7C9
:10291000E9FD10BD704770472DE9F04F87B0824642
:102920004D49DAF800000968884216D14B484078D2
:10293000022805D14A48FEF78CF94A49088008E088
:1029400046484078012804D14748FEF782F94749B4
:1029500008800020464908707BE04649DAF800000C
:102960000968884275D1002006900120424908700C
:102970003A484078032868D14048007860BB37491E
:10298000B1F90C00FDF750FE3D490190FDF786FCC2
:1029900002903C4801680298FDF74EFC83463A4895
:1029A00001685846FDF7F0FB0390FDF785FE002215
:1029B000364BCDE90401FDF753FD80460022344B30
:1029C000FDF7C3FD06460022324BFDF74CFD0446E1
:1029D000FDF785FE06902FE02049B1F90C00FDF7C8
:1029E00023FE27490090FDF759FC01902548016816
:1029F0000198FDF721FC8346234801685846FDF7FE
:102A0000C3FB25490290FDF749FC0390FDF754FEF6
:102A100000221E4BCDE90401FDF722FD06460022EF
:102A20001B4BFDF792FD044600221A4BFDF71BFDE0
:102A30008046FDF754FE06900698FDF710FE84B21E
:102A4000224601211548FEF740F80348FFF7D2FD62
:102A500000BF07B0BDE8F08FC00500206000002077
:102A6000400700200C000020200700200A00002062
:102A700008000020000600200E0000205400002066
:102A800000007A44280000202400002000000440B8
:102A900000001440E0FFEF400000C04000070020AD
:102AA0007047704710B504462068C06820F49070E5
:102AB0002168C8602068406920F0010021684861F1
:102AC0002068406900F04000D8B12068406920F0DB
:102AD000400021684861606B50B10F48616B4863EA
:102AE000606BFEF73FFBA0B1606B416B884710E065
:102AF0000020E085202084F83A002046FFF7D1FF2F
:102B000007E00020E085202084F83A002046FFF707
:102B1000C8FF002010BD00003945000870470000C4
:102B20002DE9F0470446206805682068C6682068DB
:102B300047694FF00008C14605F00F08B8F1000FD3
:102B40000AD105F0200038B106F0200020B120465F
:102B500001F01EFDBDE8F087B8F1000F6DD007F061
:102B6000010018B906F49070002866D005F0010045
:102B700030B106F4807018B1E06B40F00100E06302
:102B800005F0040030B107F0010018B1E06B40F02F
:102B90000200E06305F0020030B107F0010018B157
:102BA000E06B40F00400E06305F0080030B107F08E
:102BB000010018B1E06B40F00800E063E06B68B31F
:102BC00005F0200028B106F0200010B1204601F0E9
:102BD000DFFC20684069C0F38019E06B00F008005A
:102BE00010B9B9F1000F22D0204601F0B1FC2068E5
:102BF000406900F04000B0B12068406920F040001A
:102C000021684861606B50B11748616B4863606B25
:102C1000FEF7A8FA10B1606B416B88470CE02046C4
:102C2000FFF77CFF08E02046FFF778FF04E020462E
:102C3000FFF774FF0020E0638CE705F0800030B1FF
:102C400006F0800018B1204601F0DAFD82E705F0B9
:102C5000400030B106F0400018B1204601F088FC79
:102C600078E700BF76E700002545000810B5044668
:102C70000CB9012010BDA06900B100E000BF94F8BC
:102C8000390028B9002084F83800204600F028F8E0
:102C9000242084F839002068C06820F4005021689E
:102CA000C860204601F0C8FC2068006920F490400C
:102CB000216808612068406920F02A002168486185
:102CC0002068C06840F400502168C8600020E063BC
:102CD000202084F8390084F83A000020CAE7000078
:102CE00010B586B004464649206888422AD100BF04
:102CF0004448806940F480404249886108468069C0
:102D000000F48040019000BF00BF481502900220EF
:102D100003900320059002A93B48FEF707FB4FF400
:102D20008060029000200390049002A93648FEF7CC
:102D3000FDFA002205212520FEF737FD2520FEF7AC
:102D400027FD5BE031492068884229D100BF2D482A
:102D5000C06940F400302B49C8610846C06900F4DE
:102D60000030019000BF00BF0420029002200390B9
:102D70000320059002A92448FEF7D8FA0820029003
:102D800000200390049002A91F48FEF7CFFA00220A
:102D900002212620FEF709FD2620FEF7F9FC2DE092
:102DA0001B492068884229D100BF1648C06940F4F9
:102DB00080201449C8610846C06900F48020019051
:102DC00000BF00BF08150290022003900320059069
:102DD00002A91048FEF7AAFA4FF400600290002002
:102DE0000390049002A90B48FEF7A0FA00220421E8
:102DF0002720FEF7DAFC2720FEF7CAFC06B010BD3C
:102E0000003801400010024000080140004400402A
:102E100000480040000C014010B5034693F83A000A
:102E200020282FD101B10AB9012010BD00BF93F8AD
:102E30003800012801D10220F7E7012083F838008B
:102E400000BF99629A85DA850020D863222083F832
:102E50003A0000BF002083F8380000BF1868C0683F
:102E600040F480701C68E0601868406940F0010020
:102E70001C6860611868C06840F020001C68E06051
:102E80000020D2E70220D0E7094A01681268914287
:102E90000CD108490978102905DA0121064A517038
:102EA0000021117002E00221034A517070470000B6
:102EB00080060020AE000020060000202DE9F84327
:102EC00004460D4616461F464FF0000994F8390097
:102ED00020285CD105B116B90120BDE8F88300BFF8
:102EE00094F83800012801D10220F6E7012084F887
:102EF000380000BF0020E063212084F83900FEF78D
:102F0000C7FB8146A684E6842BE0E08C401EE0846B
:102F1000A068B0F5805F16D14B4600228021204684
:102F2000009701F0A1FC08B10320D6E7A846B8F845
:102F30000000C0F3080021684860206908B9AD1C92
:102F40000FE06D1C0DE04B460022802120460097CB
:102F500001F08AFC08B10320BFE715F8010B2168D6
:102F60004860E08C0028D0D14B460022402120460A
:102F7000009701F079FC08B10320AEE7202084F827
:102F8000390000BF002084F8380000BFA5E7022008
:102F9000A3E7704700BFFEE710B5FEF787FB01F01F
:102FA00081F900F097F800F0F3F900F023FA00F04F
:102FB00053FA4820FDF726FF00211D48FDF7DEFCEF
:102FC0001C48FDF7A9FE00211B48FDF7C7FD0121A4
:102FD0001A48FDF7C3FD174800F080FF4FF4FA6070
:102FE000FEF794F91548164948601348154948609A
:102FF00012481549486000201149087011490870AD
:1030000011490870012211031048FEF73BFB012211
:1030100004210F48FEF736FB002240210D48FEF741
:1030200031FB00224FF480710848FEF72BFB10BDE6
:103030000007002054000020200700204007002047
:103040003C000020440000204C0000200010014003
:1030500000140140000C014030B505460C4601202B
:1030600028700020A061E06120626060206110494A
:1030700008604FF07E500F49086000200E4908603C
:103080004FF07E500D49086000200D4908604FF058
:103090007E500C4908600A210B48FDF731FE0A21D9
:1030A0000A4800F04EFF0A21094800F04AFF30BDEF
:1030B00024000020280000202C00002030000020E8
:1030C0003400002038000020480500207005002052
:1030D0009805002000B585B000BF5148806940F0D8
:1030E00020004F4988610846806900F02000009068
:1030F00000BF00BF00BF0846806940F01000886133
:103100000846806900F01000009000BF00BF00BFBB
:103110000846806940F0040088610846806900F034
:103120000400009000BF00BF00BF0846806940F067
:10313000080088610846806900F00800009000BF20
:1031400000BF002240F6BF513648FEF79BFA01222D
:1031500040F201113448FEF795FA0022B2213248BC
:10316000FEF790FA00224FF2FF313048FEF78AFA5C
:1031700001224FF490512B48FEF784FA01220421DA
:103180002B48FEF77FFA40F6BF70019001200290B5
:103190000320049001A92348FEF7C8F840F2B310B9
:1031A0000190012002900320049001A91E48FEF71F
:1031B000BDF840200190002002900120039001A959
:1031C0001948FEF7B3F84FF2FF300190012002904A
:1031D0000320049001A91548FEF7A8F840200190AB
:1031E000002002900120039001A90E48FEF79EF8EE
:1031F0004FF480500190012002900220049001A918
:103200000848FEF793F80420019001200290022064
:10321000049001A90648FEF789F805B000BD00003A
:10322000001002400010014000080140000C014065
:103230000014014010B586B004464FF08040174995
:10324000086041F61F404860002114488160601EFC
:103250001249C860002111480161FFF775F918B1E2
:10326000E0210FA002F033FD4FF48050029002A93C
:103270000A48FFF7EAF918B1E62109A002F027FD94
:1032800000200090019069460448FFF72CF918B11E
:10329000ED2103A002F01BFD06B010BDC00500200B
:1032A0002E2E5C447269766572735C557365725F2D
:1032B0004472697665725C5372635C6861726477AC
:1032C0006172652E630000002DE9F04786B08246EA
:1032D00021482249086047F27F00486000211F48CA
:1032E00081605046FDF7AEF9804600221C4BFDF789
:1032F000BAF8064600221B4BFDF7AFF80446FDF76F
:10330000C2F91649C860002114480161FFF71CF991
:1033100020B14FF4807114A002F0D9FC4FF480501A
:10332000029002A90D48FFF790F920B14FF4837184
:103330000DA002F0CCFC00200090019069460748E7
:10334000FFF7D1F820B140F20D1107A002F0BFFC49
:1033500006B0BDE8F0870000000400400006002031
:10336000000004400000F03F2E2E5C447269766538
:1033700072735C557365725F4472697665725C53F3
:1033800072635C68617264776172652E630000002D
:1033900010B50C480C4908604FF496404860002175
:1033A00009488160C16001610C2141610021816196
:1033B000C161FFF75BFC20B14FF48F7103A002F0F5
:1033C00086FC10BD00380140400600202E2E5C44D3
:1033D0007269766572735C557365725F4472697663
:1033E00065725C5372635C68617264776172652EAA
:1033F0006300000010B50C480C4908604FF4E13040
:103400004860002109488160C16001610C2141616F
:1034100000218161C161FFF729FC20B140F22F1129
:1034200003A002F054FC10BD0044004080060020C0
:103430002E2E5C447269766572735C557365725F9B
:103440004472697665725C5372635C68617264771A
:103450006172652E6300000010B50C480C490860CD
:103460004FF4E1304860002109488160C16001618A
:103470000C21416100218161C161FFF7F7FB20B19F
:1034800040F2411103A002F022FC10BD00480040B0
:10349000C00600202E2E5C447269766572735C55FE
:1034A0007365725F4472697665725C5372635C68BF
:1034B000617264776172652E6300000000BFFEE7F1
:1034C0002DE9F04107460C464FF07E56002506E0F8
:1034D00031463846FCF7B0FE0646681CC5B2A54228
:1034E000F6DB3046BDE8F081704700000248006816
:1034F000C0F30220704700000CED00E010B500287A
:1035000007DA0A07140E054A00F00F031B1FD454F4
:1035100003E00A07130E024A135410BD18ED00E031
:1035200000E400E010B5012211020E48FEF7AAF8EF
:103530000D48FFF7B7FAF1200C49087048704FF4B6
:103540007A730B220A48FFF7B9FC18B1322109A09F
:1035500002F0BDFB00224FF480710248FEF792F8A2
:1035600010BD00000010014040060020BF000020F8
:10357000800600202E2E5C447269766572735C555D
:103580007365725F4472697665725C5372635C50F6
:10359000433438355F54585F70726F746F636F6C6B
:1035A0002E63000070B505460C4616462A49E068B1
:1035B000FCF742FEE0606878032802D068780128B2
:1035C00011D1E07825498870A078C87060780871BA
:1035D00020784871E07BC871A07B0872607B4872DC
:1035E000207B887216E06878042802D06878022868
:1035F00010D1E07B19498870A07BC870607B08718E
:10360000207B4871E078C871A078087260784872B1
:1036100020788872114806704670114840790F4929
:103620008871012211020F48FEF72CF80E48FFF7AF
:1036300039FA4FF47A730B2208490C48FFF73EFC25
:1036400018B125210AA002F042FB00224FF480713C
:103650000448FEF717F870BD00007A44BF00002050
:103660005400002000100140400600208006002089
:103670002E2E5C447269766572735C557365725F59
:103680004472697665725C5372635C5043343835BA
:103690005F54585F70726F746F636F6C2E630000BD
:1036A00070B504460D466078012802D06078022883
:1036B00005D1F22229462046FFF774FFB8E0607872
:1036C000032859D1B4F90800B4F90A10884229DC5A
:1036D000B4F90C00B4F90A108842EFDCF222294652
:1036E0002046FFF75FFFA089A18A084400B2A081AD
:1036F000B4F90C00B4F90A108842DFDD4D48FEF73A
:1037000088FF4D48FEF785FF6420FDF7FFFD01208F
:103710002070F32229462046FFF744FF4748FDF773
:10372000FBFA85E0B4F90C00B4F90A1088427FDB9B
:10373000F22229462046FFF735FFA089A18A401AC8
:1037400000B2A081B4F90C00B4F90A1088426FDA13
:103750003848FEF75EFF3848FEF75BFF6420FDF750
:10376000D5FD01202070F32229462046FFF71AFFDD
:103770003248FDF7D1FA5BE06078042858D1B4F9FB
:103780000E00B4F91010884229DCB4F91200B4F923
:10379000101088424CDCF22229462046FFF702FF37
:1037A000608AA18A084400B26082B4F91200B4F9B8
:1037B000101088423CDD1F48FEF72BFF1E48FEF725
:1037C00028FF6420FDF7A2FD01202070F322294686
:1037D0002046FFF7E7FE1948FDF79EFA28E0B4F906
:1037E0001200B4F91010884222DBF222294620464A
:1037F000FFF7D8FE608AA18A401A00B26082B4F94D
:103800001200B4F91010884212DA0A48FEF701FFDC
:103810000948FEF7FEFE6420FDF778FD01202070C8
:10382000F32229462046FFF7BDFE0448FDF774FA4F
:1038300070BD000000060020C005002054000020DC
:103840002DE9FC41054600240027002600200190B8
:1038500000900CE2BDF8040000F00F06002E7DD1B0
:10386000BDF8040000F0100088BB2868008848F606
:103870000F7108402968088005F128042868B0F80D
:103880005010207801EBC000801C296801F5806190
:1038900031F81000C0F30900E061E1696069084493
:1038A000606100212846FDF7D3FF95F82400002829
:1038B000CFD0A0690028CCD195F8240040F080003A
:1038C0002968A1F84C00002085F82400CFE1FFE72B
:1038D00005F50A74286800880090BDF8000000F41F
:1038E000006018B32868B0F85010207801EBC000D1
:1038F000801D296801F5806131F81000C0F30900CE
:10390000E061A18B8BB2A28805F22C41286802F0FD
:10391000A0F928680088C0F30E0048F68F710840AF
:10392000296808802846FEF791F9A0E1BDF800005B
:1039300000F4004000288CD028680088C0F30E00F6
:1039400048F68F710840296808802868B0F8501040
:10395000207801EBC000801D296800E055E001F5EA
:10396000806131F81000C0F30900E061E06960B1E6
:10397000B4F81CC01FFA8CF3A2886169286802F0B1
:1039800068F9E16960690844606100212846FDF733
:103990006DFF2A6802F580622868B0F85000801D2B
:1039A00002EB400122693E2A10D92269C2F34F106E
:1039B000227C02F01F020AB9421E90B24FF6FF723B
:1039C00002EA802242F400420A600DE02269C2F35A
:1039D0004F00227C02F001020AB1421C90B24FF665
:1039E000FF7202EA80220A60296809884BF68F720A
:1039F00001EA020080F4805080F4005040F400415D
:103A000041F080012A68118031E17100286830F8A6
:103A100011000090BDF8000000F4004000287CD0A8
:103A20007100286830F81100C0F30E0048F68F715D
:103A300008407200296821F8120005F50A7000EBB1
:103A40004614A07AA8B92868B0F85010207801EB85
:103A5000C000801D296801F5806131F81000C0F3B5
:103A60000907EFB3A28861693B46286802F0F1F8C4
:103A700044E021784900286830F8110000F48040C3
:103A8000A8B12868B0F85010207801EBC000801C65
:103A9000296801F5806131F81000C0F30907DFB132
:103AA000E28861693B46286802F0D3F814E0286890
:103AB000B0F85010207801EBC000801D296801F596
:103AC000806131F81000C0F309072FB122896169C4
:103AD0003B46286802F0BDF821784900286800E0DC
:103AE0000CE030F8110048F68F71084048F2C00130
:103AF000084322785200296821F81200E06938440E
:103B0000E061606938446061A06910B12069B84221
:103B100004D921782846FDF7A9FE05E0217828463A
:103B2000D4E90523FDF71CFFBDF8000000F080007C
:103B300000287CD005F1280000EB461471002868AD
:103B400030F8110048F60F7108407200296821F81A
:103B50001200A07AD0B92868B0F85010207801EB94
:103B6000C000801C296801F5806131F81000C0F3A5
:103B70000900E061E069E8B3B4F81CC01FFA8CF3F7
:103B8000A2886169286802F07FF84EE02178490038
:103B9000286830F8110000F04000D0B12868B0F873
:103BA0005010207801EBC000801C296801F580616D
:103BB00031F81000C0F30900E061E06928B3B4F8FF
:103BC0001CC01FFA8CF3E2886169286802F05CF877
:103BD0001BE02868B0F85010207801EBC000801D71
:103BE000296801F5806131F81000C0F30900E06137
:103BF000E06900E019E040B1B4F81CC01FFA8CF392
:103C000022896169286802F03FF821784900286814
:103C100030F8110048F68F7108404CF280010843DB
:103C200022785200296821F81200286800E01EE07E
:103C3000B0F85010207801EBC000801C296801F515
:103C4000806131F81000C0F30900E061E16960694A
:103C500008446061A06920B921782846FDF7F8FD85
:103C600005E021782846D4E90523FDF7D7FE28682A
:103C7000B0F84400019000F4004000287FF4EAAD61
:103C8000BDE8FC817047000008B508490968C9080B
:103C90004FF47A72B1FBF2F14143009100BF00BFD3
:103CA00000994A1E00920029F9D108BD00000020A9
:103CB00010B50446A07820B1A0786071607900F05A
:103CC00099FA10BD2DE9F04F87B0044689469A460F
:103CD0006078012872D1584880780028FAD150467F
:103CE000FCF7B0FC07460022544BFCF7BCFB00225B
:103CF000534BCDE90001FCF728FC0022514BCDE9E4
:103D00000201FCF7AAFB00224F4BCDE90401FCF7AE
:103D1000AAFB0546FCF7E3FC83464748807918B9BF
:103D200001204549887102E0002043498871B4F9B7
:103D30000C004FF47A7190FBF1F0C0F10C063046A4
:103D4000FCF772FC05465946FCF7E6FC10D3B4F9C3
:103D50000C004FF47A7190FBF1F06FF00B010E1A2A
:103D60003046FCF761FC05465946FCF7DFFC28D2DB
:103D700031484079012822DD2F484079401E2E49E4
:103D8000487108464079C979884204D101202A49FE
:103D90000872487002E000202749087226494879D5
:103DA00000F028FA0020C9F81800C9F81C005020BB
:103DB000FDF7ACFA012007B0BDE8F08F35E0002038
:103DC000F9E7BAF5084F2ED2BAF5F24F2BD31A48BD
:103DD00040791949C978884223DA17484079401C4C
:103DE0001549487108464079C979884208D1124876
:103DF0004079401E1049487101200872487002E065
:103E000000200D4908720C49487900F0F3F90020B0
:103E1000C9F81800C9F81C005020FDF777FA0120F6
:103E2000C9E70020C7E70020C5E76078022801D174
:103E30000020C0E70020BEE754000020000004403E
:103E4000E0FFEF400000F43F000028402DE9F04182
:103E500004460F466068FCF7FCFE0646FCF7EDFBE7
:103E600005462846BDE8F08110B500220121194819
:103E7000FDF708FC002202211648FDF703FC002292
:103E800004211448FDF7FEFB002208211148FDF72C
:103E9000F9FB002210210F48FDF7F4FB002220213E
:103EA0000C48FDF7EFFB002201210B48FDF7EAFB70
:103EB000002202210848FDF7E5FB00220421064804
:103EC000FDF7E0FB00224FF480510348FDF7DAFBD9
:103ED00010BD000000100140000C014010B5044668
:103EE000FFF7C2FF207800F007F8607800F016F8BE
:103EF000607900F07FF910BD10B504462CB900229E
:103F000008210548FDF7BEFB04E001220821024814
:103F1000FDF7B8FB10BD0000000C014010B50446D1
:103F2000012C05D1002210210448FDF7ABFB04E071
:103F3000012210210148FDF7A5FB10BD000C014036
:103F400070470246002005E04FF07E5342F82030D3
:103F5000431CD8B28842F7DB704700002DE9F04FD0
:103F600089B00446894600200890607802285CD118
:103F700099F8000040BBB4F91200FCF755FB039020
:103F8000644801680398FCF757F983466248016862
:103F90005846FCF7F9F88246FCF78EFB00225F4B8F
:103FA000CDE90401FCF75CFA074600225C4BFCF704
:103FB000CCFA054600225B4BFCF755FACDE9060129
:103FC000FCF78DFB08902BE0B4F91200FCF72CFBFA
:103FD0000290504801680298FCF72EF903904E4871
:103FE00001680398FCF7D0F883464F49FCF756F96F
:103FF0008246FCF761FB0022484BCDE90401FCF747
:104000002FFA07460022464BFCF79FFA0022454B49
:10401000CDE90601FCF727FA0546FCF760FB08909E
:104020004249487900F0E6F863E06078012860D101
:1040300099F8000058BBB4F90C00FCF7F5FA3C49BC
:104040000290FCF72BF90390324801680398FCF7C3
:10405000F3F80490304801680498FCF795F805904F
:10406000FCF72AFB074600222C4BFCF7F9F900224B
:104070002B4BCDE90601FCF768FA05460022294BD7
:10408000FCF7F1F98246FCF72AFB08902EE0B4F920
:104090000C00FCF7C9FA26490190FCF7FFF80290E2
:1040A0001C4801680298FCF7C7F803901A48016899
:1040B0000398FCF769F81C490490FCF7EFF80590A9
:1040C000FCF7FAFA0022154BCDE90601FCF7C8F916
:1040D00007460022124BFCF738FA82460022114BA9
:1040E000FCF7C1F90546FCF7FAFA08904846FFF7D5
:1040F000DFFD0898FCF7B3FA85B22A4601210D4886
:10410000FCF7E3FC012220210B48FDF7BBFA09B0C4
:10411000BDE8F08F280000202400002000000440AB
:1041200000001440E0FFEF400000C04054000020B9
:1041300000007A4400070020000C014070B50446DE
:104140000D461646A07811280FD100202070314668
:104150002046FFF703FF208BFDF7D8F800F0CCF9DD
:1041600001212046FCF7A8FD13E0A078132810D108
:104170000120207000212046FCF79EFD002005490B
:104180000870A861E8612862034908700348FCF7D9
:10419000C3FD70BD190000200E0000205400002057
:1041A00070B504460E466078022802D06078012877
:1041B00002D109200C49C8700B494878FFF7AEFEC0
:1041C000A088FFF781F80948FEF723FAE08842F259
:1041D000107191FBF0F085B22846FFF72BF80448E8
:1041E000FEF717FA70BD0000540000200006002002
:1041F000C005002010B50446FFF736FE0B2C43D255
:10420000DFE804F042060C12181E242A30363C0067
:10421000012211461E48FDF735FA36E0012202213F
:104220001B48FDF72FFA30E0012204211848FDF762
:1042300029FA2AE0012208211548FDF723FA24E093
:10424000012210211248FDF71DFA1EE00122202153
:104250000F48FDF717FA18E0012211460D48FDF747
:1042600011FA12E0012202210A48FDF70BFA0CE0D4
:10427000012204210748FDF705FA06E00122110397
:104280000448FDF7FFF900E000BF00BF10BD0000CB
:1042900000100140000C014010B5FDF7FFF9FEF7DA
:1042A0001CF910BD10B596B001200C9000040D90C3
:1042B00000200E900120109002201390C103149151
:1042C0004FF4E01115910CA8FDF7B8FE18B14E217E
:1042D0001AA001F0FCFC0F2007900220089000209B
:1042E00009904FF480600A9000200B90022107A8EB
:1042F000FDF760FD18B15C2110A001F0E8FC102072
:1043000001900020069001A8FDF7BCFC18B16321C4
:104310000AA001F0DCFCFDF71FFE4FF47A71B0FB40
:10432000F1F42046FEF7BFF80420FEF7A7F80022BC
:104330001146501EFDF739FA16B010BD2E2E5C4402
:104340007269766572735C557365725F44726976E3
:1043500065725C5372635C68617264776172652E2A
:10436000630000001148006840F001000F49086038
:10437000084640680E4908400C49486008460068F5
:104380000C490840094908600846006820F480206C
:1043900008600846406820F4FE0048604FF41F00A3
:1043A0008860C8030449086070470000001002409C
:1043B0000000FFF8FFFFF6FE08ED00E010B5024830
:1043C000FEF7DDF910BD0000C005002010B5024861
:1043D000FEF7D5F910BD000000060020002202689B
:1043E0001F4B98420ED01F4B98420BD0B0F1804F1C
:1043F00008D01D4B984205D01C4B984202D01C4B54
:10440000984203D122F070024B681A43144B984231
:104410000ED0144B98420BD0B0F1804F08D0124B05
:10442000984205D0114B984202D0114B984203D1CB
:1044300022F44072CB681A4322F080024B691A437F
:1044400002608B68C3620B688362054B984202D09E
:10445000044B984201D10B69036301234361704708
:10446000002C0140003401400004004000080040DE
:10447000000C004030B50C460021816821F47F41DA
:1044800042EA032525432943816030BD0A460021C5
:10449000816821F0700142F0070319438160704781
:1044A00030B50B46144600210022026A056A25F049
:1044B00001050562816921F0F00141EA041122F051
:1044C0000A021A438161026230BD30B50B461446C0
:1044D00000210022056A25F0100505628169026A43
:1044E00021F4704141EA043122F0A00242EA0312B1
:1044F0008161026230BD000010B500240AE0074867
:10450000FCF7A7FB0120FCF701FF0548FCF7A1FB26
:10451000601CC4B2042CF2DB10BD00002007002098
:104520004007002070B505466C6A0020E085E084F5
:104530002046FEF7F3FA70BD70B505466C6A0020A0
:10454000E085202084F83A002046FEF7AAFA70BDE4
:104550000168C96821F490710268D16001684969F5
:1045600021F0010102685161202180F83A10704762
:1045700010B504462068C06820F040002168C8607B
:10458000202084F839002046FEF703FD002010BDEE
:1045900070B5044694F83A0022284AD1A068B0F5D4
:1045A000805F13D1A56A206940B920684068C0F3D4
:1045B00008002880A06A801CA06219E0206840687A
:1045C000C0B22880A06A401CA06211E0206938B9FE
:1045D00020684068C1B2A26A501CA062117007E056
:1045E0002068406800F07F01A26A501CA062117030
:1045F000E08D401E80B2E085C8B92068C06820F018
:1046000020002168C8602068C06820F4807021689C
:10461000C8602068406920F00100216848612020BE
:1046200084F83A002046FEF72FFC002070BD0020E1
:10463000FCE70220FAE700002DE9F04104460025DE
:104640002068006920F44050E1680843216808614F
:104650002169A06808436169084305432068C06870
:1046600041F20C61884328432168C8602068406992
:1046700020F44070A1690843216848615F492068BF
:1046800088425CD1FDF77EFC00EBC00101EB00101D
:1046900061688900B0FBF1F6FDF774FC00EBC00126
:1046A00001EB001061688900B0FBF1F06421B0FB00
:1046B000F1F000EBC00101EB0010A6EB800032210D
:1046C00001EB00106421B0FBF1F000F0F006FDF703
:1046D00059FC00EBC00101EB001061688900B0FBE0
:1046E000F1F06421B0FBF1F006EB0016FDF74AFC97
:1046F00000EBC00101EB001061688900B0FBF1F72D
:10470000FDF740FC00EBC00101EB0010616889007F
:10471000B0FBF1F06421B0FBF1F000EBC00101EB64
:104720000010A7EB8000322101EB00106421B0FBE8
:10473000F1F000F00F003044216888605BE0FDF785
:1047400011FC00EBC00101EB001061688900B0FBB7
:10475000F1F6FDF707FC00EBC00101EB001061680A
:104760008900B0FBF1F06421B0FBF1F000EBC00177
:1047700001EB0010A6EB8000322101EB0010642158
:10478000B0FBF1F000F0F006FDF7ECFB00EBC00130
:1047900001EB001061688900B0FBF1F06421B0FB0F
:1047A000F1F006EB0016FDF7DDFB00EBC00101EBBD
:1047B000001061688900B0FBF1F7FDF7D3FB00EB57
:1047C000C00101EB001061688900B0FBF1F06421C9
:1047D000B0FBF1F000EBC00101EB0010A7EB800093
:1047E000322101EB00106421B0FBF1F000F00F006A
:1047F000304421688860BDE8F08100000038014045
:10480000014691F8390021282CD18868B0F5805FE5
:104810000FD10A6A1088C0F308000B685860086955
:1048200018B9086A801C086209E0086A401C08621E
:1048300005E00B6A581C086218780B685860C88C31
:10484000401E80B2C88458B90868C06820F0800053
:104850000B68D8600868C06840F040000B68D860FA
:10486000002070470220FCE72DE9F04104460D4688
:1048700017469846069E21E0701CF8B12EB1FCF751
:1048800007FFA0EB0800B04218D92068C06820F4E8
:10489000D0702168C8602068406920F0010021685C
:1048A0004861202084F8390084F83A0000BF0020D5
:1048B00084F8380000BF0320BDE8F081206800685C
:1048C0002840A84201D1012000E00020B842D3D006
:1048D0000020F1E710B50248FEF722F910BD0000F4
:1048E0004006002010B50248FEF71AF910BD00007E
:1048F0008006002010B50248FEF712F910BD000036
:10490000C006002070B504460D46D4F814022946AE
:10491000426820469047002070BD70B504460D46A1
:1049200094F8FC01022802D0032811D100E000BF56
:10493000688801280BD10020C4F80402D4F81402BE
:104940002946826820469047204600F04AF804E055
:104950002946204600F01BF800BF00BF70BD70B5AF
:1049600006460C4615462B4622460021304600F0EE
:1049700052FA002070BD70B506460C4615462B460F
:1049800022460021304600F03AFB002070BD70B591
:1049900004460D468021204600F005FB00212046FC
:1049A00000F001FB70BD10B504460520C4F8F40109
:1049B00000231A461946204600F02DFA002010BDAB
:1049C00070B504460E4615460220C4F8F401A561F0
:1049D000E5612B4632460021204600F010FB002006
:1049E00070BD10B504460420C4F8F40100231A4633
:1049F0001946204600F003FB002010BD70B50446A8
:104A00000D46E888012804D029462046FFF7BFFF5D
:104A10001BE094F8FC01022802D003280FD108E023
:104A20000020A060012204F108012046FFF7C8FF22
:104A30000AE00122211D2046FFF7C2FF04E02946BB
:104A40002046FFF7A4FF00BF00BF70BDF8B50446C5
:104A50000E4670880012082872D2DFE800F0820447
:104A60000C2082826372207CD4F810120A68694696
:104A7000904705467AE0207C40B9D4F81402816A58
:104A80006846884705460221697007E0D4F8140299
:104A9000C16A6846884705460221697066E0B078B9
:104AA000062834D2DFE800F0030B131B232B207CF5
:104AB000D4F810124A6869469047054630E0207CD9
:104AC000D4F810128A6869469047054628E0207C91
:104AD000D4F81012CA6869469047054620E0207C49
:104AE000D4F810120A6969469047054618E0207C00
:104AF000D4F810124A6969469047054610E0207CB8
:104B0000D4F810128A6969469047054608E0B178E2
:104B1000D4F814026A46836B20469847054600BFC6
:104B200000BF23E0207C30B9D4F81402416B684602
:104B3000884705461AE031462046FFF728FFF8BDB2
:104B40000FE0207C40B9D4F81402016B6846884716
:104B500005460721697009E031462046FFF717FF37
:104B6000EDE731462046FFF712FFE8E700BFBDF84A
:104B7000000088B1F08878B1F088BDF80010884254
:104B800002DDBDF8000000E0F0880090BDF80020D4
:104B900029462046FFF714FF00BFD0E770B5044652
:104BA0000D4694F8FC01022802D0032811D100E040
:104BB00000BF0120E060D4F8040218B1E06840F0C2
:104BC0000200E060022204F10C012046FFF7F8FE2B
:104BD00004E029462046FFF7DAFE00BF00BF70BDA3
:104BE0002DE9F04104460D46002600272946D4F859
:104BF0002002FCF749FE064636B1012E06D0022EF1
:104C000006D0032E08D105E0002707E0022705E0C3
:104C1000012703E0022701E0022700BF00BF38465A
:104C2000BDE8F0812DE9F04104460E461746002EFE
:104C300054D104F11405D4F8F401022843D1D5E984
:104C40000201884210D9D5E90201401AA8602889DA
:104C500082B239462046FFF78EFE00231A461946D7
:104C6000204600F0D8F82EE0E9686868B0FBF1F261
:104C700001FB1200B8B9E9686868884213D3686814
:104C8000D4F8F81188420ED2002211462046FFF7D0
:104C900072FE0020C4F8F80100231A461946204687
:104CA00000F0B9F80FE0D4F81402C06840B194F8ED
:104CB000FC01032804D1D4F81402C16820468847B7
:104CC0002046FFF770FE94F80002012814D1204618
:104CD00000F0DAF9002084F800020DE0D4F81402A4
:104CE000406948B194F8FC01032805D1D4F81402B6
:104CF00031464269204690470020BDE8F0812DE909
:104D0000F04105460E4617465EBB05F58274D5F8A0
:104D1000F401032833D1D4E90201884210D9D4E93F
:104D20000201401AA060D4E90201884201D2A068C1
:104D300000E0E06882B239462846FFF710FE1EE028
:104D4000D5F81402006940B195F8FC01032804D19C
:104D5000D5F814020169284688472846FFF741FE26
:104D60000DE0D5F81402806948B195F8FC010328DC
:104D700005D1D5F8140231468269284690470020B3
:104D8000BDE8F08110B50246D2F8203201F0800073
:104D9000802807D101F07F0403F1280000EB4410C4
:104DA000807810BD01F07F0403F50A7000EB441019
:104DB0008078F6E72DE9F04704460F4615461E4673
:104DC0004FF00008C1462B4632463946D4F820023F
:104DD000FCF78BFD8046B8F1000F09D0B8F1010F48
:104DE00009D0B8F1020F09D0B8F1030F0CD108E0D7
:104DF0004FF000090BE04FF0020908E04FF0010905
:104E000005E04FF0020902E04FF0020900BF00BFC9
:104E10004846BDE8F0872DE9F04704460D461646A2
:104E20001F464FF00008C1463B4632462946D4F89B
:104E30002002FCF795FD8046B8F1000F09D0B8F1CB
:104E4000010F09D0B8F1020F09D0B8F1030F0CD14E
:104E500008E04FF000090BE04FF0020908E04FF0C6
:104E6000010905E04FF0020902E04FF0020900BF1E
:104E700000BF4846BDE8F08710B504464023002235
:104E800011462046FFF796FF40214FF488700151EC
:104E90004023002280212046FFF78CFF4021216221
:104EA000012084F8FC01D4F8180228B12179D4F843
:104EB0001402426820469047002010BD014691F838
:104EC000FD0181F8FC010020704710B5044694F8FC
:104ED000FC01032808D1D4F81402C06920B1D4F829
:104EE0001402C16920468847002010BD0246117493
:104EF000002070472DE9F04104460D4600260027AA
:104F00002946D4F82002FCF786FE064636B1012E6B
:104F100006D0022E06D0032E08D105E0002707E0B8
:104F2000022705E0012703E0022701E0022700BF76
:104F300000BF3846BDE8F08170B504460D462946ED
:104F400004F5027000F08CF80120C4F8F40140F27E
:104F50000E20005BC4F8F80194F8080200F01F006E
:104F600020B1012808D0022812D10BE004F502710B
:104F7000204600F049F913E004F50271204600F0E4
:104F800027FA0DE004F50271204600F076F907E0FB
:104F900094F8080200F08001204600F004F800BFF9
:104FA00000BF002070BD2DE9F04104460D460026EB
:104FB00000272946D4F82002FCF7F7FC064636B154
:104FC000012E06D0022E06D0032E08D105E00027C0
:104FD00007E0022705E0012703E0022701E002279E
:104FE00000BF00BF3846BDE8F081014691F8FC01E2
:104FF00081F8FD01042081F8FC01002070472DE9B3
:10500000F04704460D4616461F464FF00008C146BD
:105010003B4632462946D4F82002FCF7FFFC804686
:10502000B8F1000F09D0B8F1010F09D0B8F1020FA3
:1050300009D0B8F1030F0CD108E04FF000090BE0E4
:105040004FF0020908E04FF0010905E04FF00209B6
:1050500002E04FF0020900BF00BF4846BDE8F087FC
:105060000A7802704A7842708B78CA7803EB022281
:1050700042800B794A7903EB022282808B79CA79CC
:1050800003EB0222C280704701460020704770B5D2
:1050900004460D46A888F8B9E888E8B9A87800F071
:1050A0007F0694F8FC01032804D129462046FFF727
:1050B0006EFC15E084F8FE6131462046FFF71AFFCA
:1050C0002046FFF78EFC1EB1022084F8FC0107E0A9
:1050D000012084F8FC0103E029462046FFF757FC35
:1050E00070BD70B504460D460226D4F8140238B1DE
:1050F000D4F81402294602682046904700B90026D9
:10510000304670BD70B504460D46A8783449087025
:1051100008460078012804DD29462046FFF737FCC1
:105120005BE094F8FC01022802D003284FD11CE078
:105130002B480078A8B12A4800786060032084F8E2
:10514000FC01274801782046FFF7CBFF022804D155
:1051500029462046FFF71BFC70BD2046FFF741FCA7
:1051600002E02046FFF73DFC36E01D48007870B9AC
:10517000022084F8FC011A48007860601848017821
:105180002046FFF7BFFB2046FFF72BFC1EE014492B
:1051900009786068884216D021792046FFF7B2FB73
:1051A0000F48007860600E4801782046FFF799FFAD
:1051B000022804D129462046FFF7E9FBCCE7204628
:1051C000FFF70FFC02E02046FFF70BFC04E0294646
:1051D0002046FFF7DCFB00BF00BF00BFBCE70000BC
:1051E0000400002070B504460D46688801280AD1E5
:1051F000C4F80402D4F81402294682682046904775
:105200002046FFF7EEFB70BD70B505460C46002644
:1052100060780A2829D2DFE800F01923281E280A1E
:105220000528140F21462846FFF710FC22E02146EE
:105230002846FFF72CFF1DE021462846FFF762FFB6
:1052400018E021462846FFF7D9FB13E021462846FF
:10525000FFF7A4FC0EE021462846FFF7C3FF09E054
:1052600021462846FFF759FB04E021462846FFF770
:105270008EFB00BF00BF304670BD2DE9F0410546F2
:105280000E464FF000083479307800F06000202896
:1052900008D1D5F81402314682682846904700208C
:1052A000BDE8F0817078002855D001282AD0032865
:1052B0007AD195F8FC01022802D003281BD107E01F
:1052C0002CB1802C03D021462846FFF76CFE17E056
:1052D000708830B92CB1802C03D021462846FFF7C6
:1052E00062FED5F814023146826828469047284667
:1052F000FFF777FB04E031462846FFF748FB00BF85
:1053000000BF62E095F8FC01022802D003281BD1FF
:1053100007E02CB1802C03D021462846FFF743FE3E
:1053200017E0708878B904F07F0048B1214628461C
:10533000FFF756FCD5F8140231468268284690479C
:105340002846FFF74EFB04E031462846FFF71FFBD7
:1053500000BF00BF39E095F8FC01022802D0032805
:105360002BD107E004F07F0018B121462846FFF753
:105370001AFE27E004F08000802806D104F07F01A7
:1053800005F1140000EB011005E004F07F0105F5C4
:10539000827000EB0110074621462846FFF7F2FC19
:1053A00018B10120386002E00EE0002038600222CF
:1053B00039462846FFF704FB04E031462846FFF74C
:1053C000E6FA00BF00BF00E000BF00BF404667E74D
:1053D00070B504460D46002694F8FC01032814D14C
:1053E000287901280CDCD4F814022946826820466A
:1053F0009047E88840B93EB92046FFF7F2FA03E04B
:1054000029462046FFF7C3FA04E029462046FFF765
:10541000BEFA00BF00BF002070BD10B50246C878BC
:1054200030B101282CD0022810D0032836D119E041
:105430000878400032F8100048F68F13184040F406
:1054400000700B785B0022F8130028E00878400019
:1054500032F8100048F68F1318400B785B0022F8E2
:1054600013001CE00878400032F8100048F68F1353
:10547000184040F4C0600B785B0022F813000EE087
:105480000878400032F8100048F68F13184040F4B6
:1054900080600B785B0022F8130000E000BF00BFC3
:1054A0000878400032F8100048F68F73184048F230
:1054B000800318430B7818435B0022F81300887AA6
:1054C00000287DD1487898B3888840104400B2F80D
:1054D0005030087803EBC00002F5806343F81040B9
:1054E0000878400032F8100000F0400068B10878F9
:1054F000400032F8100048F68F73184048F2C0039D
:1055000018430B785B0022F813000B785B0032F82D
:10551000133048F6BF7403EA040080F0200040F422
:10552000004343F080030C78640022F8143047E114
:10553000FFE7888840104400B2F85030087803EB49
:10554000C000001D02F5806343F81040B2F85040DF
:10555000087804EBC000801D1C4604EB40030C6976
:105560003E2C10D90C69C4F34F100C7C04F01F04BE
:105570000CB9441EA0B24FF6FF7404EA802444F430
:1055800000441C600DE00C69C4F34F000C7C04F077
:1055900001040CB1441CA0B24FF6FF7404EA80244D
:1055A0001C600878400032F8100000F4804078B1A8
:1055B0000878400032F8100048F68F73184000E079
:1055C0001BE04CF2800318430B785B0022F81300B9
:1055D0000B785B0032F813304BF68F7403EA04004B
:1055E00080F4805080F4005040F4004343F0800386
:1055F0000C78640022F81430E2E00878400032F8B9
:10560000100040F4807048F68F73184048F2800311
:1056100018430B785B0022F81300C8884010440040
:10562000B2F85030087803EBC00002F5806343F80D
:105630001040088940104400B2F85030087803EB5D
:10564000C000001D02F5806343F810404878F0BBAD
:105650000878400032F8100000F4804068B1087803
:10566000400032F8100048F68F7318404CF2800367
:1056700018430B785B0022F813000878400032F8DA
:10568000100000F0400068B10878400032F81000C7
:1056900048F68F73184048F2C00318430B785B003C
:1056A00022F813000878400032F8100048F68F7393
:1056B000184048F2C00318430B785B0022F813002F
:1056C0000B785B0032F813304BF68F7400E01EE06D
:1056D00003EA040080F4805080F4005040F400435A
:1056E00043F080030C78640022F814300B785B00E0
:1056F00032F8133048F6BF7403EA040040F4004364
:1057000043F080030C78640022F8143058E00878E5
:10571000400032F8100000F4804068B10878400082
:1057200032F8100048F68F7318404CF2800318438B
:105730000B785B0022F813000878400032F8100064
:1057400000F0400068B10878400032F8100048F6D8
:105750008F73184048F2C00318430B785B0022F89F
:1057600013000878400032F8100048F68F73184094
:105770004CF2800318430B785B0022F813000B787F
:105780005B0032F8133048F6BF7403EA040040F4BB
:10579000004343F080030C78640022F814300B7847
:1057A0005B0032F813304BF68F7403EA040040F4C8
:1057B000004343F080030C78640022F8143000BFEB
:1057C000002010BD02460020704710B50246487800
:1057D00048B30878400032F8100000F0400068B18B
:1057E0000878400032F8100048F68F73184048F2ED
:1057F000C00318430B785B0022F813000B785B00A2
:1058000032F8133048F6BF7403EA040080F0100049
:1058100080F0200040F4004343F080030C786400E3
:1058200022F8143029E00878400032F8100000F423
:10583000804068B10878400032F8100048F68F7355
:1058400018404CF2800318430B785B0022F81300D9
:105850000B785B0032F813304BF68F7403EA0400C8
:1058600080F4805080F4005040F4004343F0800303
:105870000C78640022F8143000BF002010BD10B571
:1058800002460878A0B90B785B0032F813304BF66B
:10589000BF7403EA040080F4805080F0100040F4EC
:1058A000004343F080030C78640022F8143027E0B2
:1058B000487890B10B785B0032F8133048F6BF742B
:1058C00003EA040080F0100040F4004343F080033A
:1058D0000C78640022F8143012E00B785B0032F888
:1058E00013304BF68F7403EA040080F4805040F4C8
:1058F000004343F080030C78640022F8143000BFAA
:10590000002010BDF0B506460C460027A56960785A
:1059100001287CD12169A069884204D92569A06940
:10592000401BA06102E0A5690020A061A07A80B9B7
:10593000ABB2A2883046616900F0A6F9B6F8501003
:10594000207801EBC000801C06F5806141F8105002
:10595000A1E02078400036F8100000F04000C0B30D
:10596000607838BBB6F85020207802EBC000801D6C
:1059700006F5806202EB40013E2D0ED9C5F34F10B3
:1059800005F01F020AB9421E90B24FF6FF7202EAFA
:10599000802242F400420A600BE0C5F34F0005F09C
:1059A00001020AB1421C90B24FF6FF7202EA802255
:1059B0000A600CE06078012809D1B6F85010207810
:1059C00001EBC000801C06F5806141F8105027896A
:1059D00039E0FFE7607840BBB6F85020207802EB52
:1059E000C000801C06F5806202EB40013E2D0FD9FD
:1059F000C5F34F1005F01F020AB9421E90B24FF6D0
:105A0000FF7202EA802242F400420A600CE057E092
:105A1000C5F34F0005F001020AB1421C90B24FF6E7
:105A2000FF7202EA80220A600CE06078012809D146
:105A3000B6F85010207801EBC000801C06F580619C
:105A400041F81050E788ABB23A463046616900F041
:105A50001BF9607870B92078400036F8100048F6DD
:105A60008F71084048F2C00108432178490026F8A8
:105A7000110010E0607801280DD12078400036F840
:105A8000100048F68F7108404CF2800108432178DD
:105A9000490026F811002178490036F8111048F61F
:105AA000BF7201EA020080F0100080F0200040F494
:105AB000004141F080012278520026F81210B8E02F
:105AC0002169A069884204D92569A069401BA061A9
:105AD00002E0A5690020A061A07A38BBB6F850208A
